{
  "contractName": "OpenSeaProxyRegistry",
  "abi": [
    {
      "inputs": [
        {
          "internalType": "address",
          "name": "",
          "type": "address"
        }
      ],
      "name": "proxies",
      "outputs": [
        {
          "internalType": "contract OwnableDelegateProxy",
          "name": "",
          "type": "address"
        }
      ],
      "stateMutability": "view",
      "type": "function"
    }
  ],
  "bytecode": "0x608060405234801561001057600080fd5b506101d3806100206000396000f3fe608060405234801561001057600080fd5b506004361061002b5760003560e01c8063c455279114610030575b600080fd5b61004a600480360381019061004591906100f6565b610060565b6040516100579190610182565b60405180910390f35b60006020528060005260406000206000915054906101000a900473ffffffffffffffffffffffffffffffffffffffff1681565b600080fd5b600073ffffffffffffffffffffffffffffffffffffffff82169050919050565b60006100c382610098565b9050919050565b6100d3816100b8565b81146100de57600080fd5b50565b6000813590506100f0816100ca565b92915050565b60006020828403121561010c5761010b610093565b5b600061011a848285016100e1565b91505092915050565b6000819050919050565b600061014861014361013e84610098565b610123565b610098565b9050919050565b600061015a8261012d565b9050919050565b600061016c8261014f565b9050919050565b61017c81610161565b82525050565b60006020820190506101976000830184610173565b9291505056fea2646970667358221220e586bb6f1e56a26d8b6c12b990e3b9f0e62103cd27c82db204f20358a1a3b25f64736f6c634300080a0033",
  "immutableReferences": {},
  "source": "// SPDX-License-Identifier: MIT\r\n\r\nimport '@OpenZeppelin/contracts/token/ERC721/extensions/ERC721Enumerable.sol';\r\nimport '@OpenZeppelin/contracts/access/Ownable.sol';\r\n\r\n// Contract: X07 Kiddos\r\n// Created by: Notifao Technologies Corp.\r\n\r\npragma solidity ^0.8.7;\r\n\r\ncontract X07Kiddos is ERC721Enumerable, Ownable {\r\n    using Strings for uint256;\r\n    string public baseURI;\r\n    string public baseExtension = \".json\";\r\n    uint256 private _reserved = 108;        // -1 = 107 reserved tokens\r\n    uint256 public cost = 0.07 ether;       // mint price\r\n    bool public paused = false;\r\n    bool public whitelistOnly = true;\r\n    mapping(address => bool) public whitelisted;\r\n    address public proxyRegistryAddress;    // OpenSea proxy address to eliminate fees on approval\r\n    \r\n    mapping(address => bool) public projectProxy;\r\n\r\n    constructor(\r\n        string memory _name,\r\n        string memory _symbol,\r\n        string memory _initBaseURI,\r\n        address _proxyRegistryAddress\r\n    ) ERC721(_name, _symbol) {\r\n        setBaseURI(_initBaseURI);\r\n        proxyRegistryAddress = _proxyRegistryAddress;\r\n    }\r\n\r\n    // internal\r\n    function _baseURI() internal view virtual override returns (string memory) {\r\n        return baseURI;\r\n    }\r\n\r\n    // public\r\n    function mint(address _to, uint256 _mintAmount) public payable {\r\n        uint256 supply = totalSupply();\r\n        require(!paused);\r\n        require(_mintAmount > 0);\r\n        require(_mintAmount < 11);                                                          // -1 = 10 is max mint amount\r\n        require(supply + _mintAmount < 7778 - _reserved);                                   // -1 = 7777 is token max supply\r\n        require((balanceOf(msg.sender) + _mintAmount) < 11, \"Wallet limit is reached.\");    // -1 = 10 is max wallet limit\r\n\r\n        if (whitelistOnly == false) {\r\n            if (msg.sender != owner()) {\r\n                if(whitelisted[msg.sender] != true) {\r\n                    require(msg.value >= cost * _mintAmount);\r\n                }\r\n            }\r\n    \r\n            for (uint256 i; i < _mintAmount; i++) {\r\n                _safeMint(_to, supply + i);\r\n            }\r\n        }\r\n        else if (whitelistOnly == true) {\r\n            require(whitelisted[msg.sender] == true, \"Address is not whitelisted.\");\r\n            \r\n            for (uint256 i; i < _mintAmount; i++) {\r\n                _safeMint(_to, supply + i);\r\n            }\r\n        }\r\n    }\r\n\r\n    function walletOfOwner(address _owner) public view returns (uint256[] memory) {\r\n        uint256 tokenCount = balanceOf(_owner);\r\n        if (tokenCount == 0) return new uint256[](0);\r\n\r\n        uint256[] memory tokensId = new uint256[](tokenCount);\r\n        for (uint256 i; i < tokenCount; i++) {\r\n            tokensId[i] = tokenOfOwnerByIndex(_owner, i);\r\n        }\r\n        return tokensId;\r\n    }\r\n\r\n    function tokenURI(uint256 tokenId) public view override returns (string memory) {\r\n        require(_exists(tokenId), \"Token does not exist.\");\r\n        return string(abi.encodePacked(baseURI, tokenId.toString(), baseExtension));\r\n    }\r\n\r\n // only owner\r\n\r\n    function collectReserves(address _to, uint256 _reservesAmount) external onlyOwner() {\r\n        require(_reservesAmount < _reserved, \"Exceeds reserved supply\");\r\n\r\n        uint256 supply = totalSupply();\r\n        for(uint256 i; i < _reservesAmount; i++){\r\n            _safeMint(_to, supply + i);\r\n        }\r\n\r\n        _reserved -= _reservesAmount;\r\n    }\r\n    \r\n    function setProxyRegistryAddress(address _proxyRegistryAddress) external onlyOwner {\r\n        proxyRegistryAddress = _proxyRegistryAddress;\r\n    }\r\n\r\n    function flipProxyState(address proxyAddress) public onlyOwner {\r\n        projectProxy[proxyAddress] = !projectProxy[proxyAddress];\r\n    }\r\n \r\n    function setBaseURI(string memory _newBaseURI) public onlyOwner {\r\n        baseURI = _newBaseURI;\r\n    }\r\n\r\n    function setBaseExtension(string memory _newBaseExtension) public onlyOwner {\r\n        baseExtension = _newBaseExtension;\r\n      }\r\n\r\n    function pause(bool _state) public onlyOwner {\r\n        paused = _state;\r\n    }\r\n \r\n    function activateWhitelist(bool _state) public onlyOwner {\r\n        whitelistOnly = _state;\r\n    }\r\n \r\n    function whitelistUser(address[] memory _user) public onlyOwner {\r\n        uint256 x = 0;\r\n        for (x = 0; x < _user.length; x++) {\r\n            whitelisted[_user[x]] = true;\r\n        }\r\n    }\r\n \r\n    function removeWhitelistUser(address[] memory _user) public onlyOwner {\r\n        uint256 x = 0;\r\n        for (x = 0; x < _user.length; x++) {\r\n            whitelisted[_user[x]] = false;\r\n        }\r\n    }\r\n  \r\n    function withdraw() public payable onlyOwner {\r\n        require(payable(msg.sender).send(address(this).balance));\r\n    }\r\n\r\n    function isApprovedForAll(address _owner, address operator) public view override returns (bool) {\r\n        OpenSeaProxyRegistry proxyRegistry = OpenSeaProxyRegistry(proxyRegistryAddress);\r\n        if (address(proxyRegistry.proxies(_owner)) == operator || projectProxy[operator]) return true;\r\n        return super.isApprovedForAll(_owner, operator);\r\n    }\r\n     \r\n}\r\n\r\ncontract OwnableDelegateProxy { }\r\ncontract OpenSeaProxyRegistry {\r\n    mapping(address => OwnableDelegateProxy) public proxies;\r\n}",
  "sourcePath": "C:\\Users\\Dapp Master\\Desktop\\nft-minting\\src\\nft\\contracts\\X07Kiddos.sol",
  "compiler": {
    "name": "solc",
    "version": "0.8.10+commit.fc410830.Emscripten.clang"
  },
  "schemaVersion": "3.4.4",
  "updatedAt": "2022-01-07T03:13:59.091Z",
  "devdoc": {
    "kind": "dev",
    "methods": {},
    "version": 1
  },
  "userdoc": {
    "kind": "user",
    "methods": {},
    "version": 1
  }
}